{
  "_format": "hh-sol-artifact-1",
  "contractName": "Decentratwitter",
  "sourceName": "contracts/Decentratwitter.sol",
  "abi": [
    {
      "inputs": [],
      "stateMutability": "nonpayable",
      "type": "constructor"
    },
    {
      "anonymous": false,
      "inputs": [
        {
          "indexed": true,
          "internalType": "address",
          "name": "owner",
          "type": "address"
        },
        {
          "indexed": true,
          "internalType": "address",
          "name": "approved",
          "type": "address"
        },
        {
          "indexed": true,
          "internalType": "uint256",
          "name": "tokenId",
          "type": "uint256"
        }
      ],
      "name": "Approval",
      "type": "event"
    },
    {
      "anonymous": false,
      "inputs": [
        {
          "indexed": true,
          "internalType": "address",
          "name": "owner",
          "type": "address"
        },
        {
          "indexed": true,
          "internalType": "address",
          "name": "operator",
          "type": "address"
        },
        {
          "indexed": false,
          "internalType": "bool",
          "name": "approved",
          "type": "bool"
        }
      ],
      "name": "ApprovalForAll",
      "type": "event"
    },
    {
      "anonymous": false,
      "inputs": [
        {
          "indexed": false,
          "internalType": "uint256",
          "name": "id",
          "type": "uint256"
        },
        {
          "indexed": false,
          "internalType": "string",
          "name": "hash",
          "type": "string"
        },
        {
          "indexed": false,
          "internalType": "uint256",
          "name": "tipAmount",
          "type": "uint256"
        },
        {
          "indexed": false,
          "internalType": "address payable",
          "name": "author",
          "type": "address"
        }
      ],
      "name": "PostCreated",
      "type": "event"
    },
    {
      "anonymous": false,
      "inputs": [
        {
          "indexed": false,
          "internalType": "uint256",
          "name": "id",
          "type": "uint256"
        },
        {
          "indexed": false,
          "internalType": "string",
          "name": "hash",
          "type": "string"
        },
        {
          "indexed": false,
          "internalType": "uint256",
          "name": "tipAmount",
          "type": "uint256"
        },
        {
          "indexed": false,
          "internalType": "address payable",
          "name": "author",
          "type": "address"
        }
      ],
      "name": "PostTipped",
      "type": "event"
    },
    {
      "anonymous": false,
      "inputs": [
        {
          "indexed": true,
          "internalType": "address",
          "name": "from",
          "type": "address"
        },
        {
          "indexed": true,
          "internalType": "address",
          "name": "to",
          "type": "address"
        },
        {
          "indexed": true,
          "internalType": "uint256",
          "name": "tokenId",
          "type": "uint256"
        }
      ],
      "name": "Transfer",
      "type": "event"
    },
    {
      "inputs": [
        {
          "internalType": "address",
          "name": "to",
          "type": "address"
        },
        {
          "internalType": "uint256",
          "name": "tokenId",
          "type": "uint256"
        }
      ],
      "name": "approve",
      "outputs": [],
      "stateMutability": "nonpayable",
      "type": "function"
    },
    {
      "inputs": [
        {
          "internalType": "address",
          "name": "owner",
          "type": "address"
        }
      ],
      "name": "balanceOf",
      "outputs": [
        {
          "internalType": "uint256",
          "name": "",
          "type": "uint256"
        }
      ],
      "stateMutability": "view",
      "type": "function"
    },
    {
      "inputs": [],
      "name": "getAllPosts",
      "outputs": [
        {
          "components": [
            {
              "internalType": "uint256",
              "name": "id",
              "type": "uint256"
            },
            {
              "internalType": "string",
              "name": "hash",
              "type": "string"
            },
            {
              "internalType": "uint256",
              "name": "tipAmount",
              "type": "uint256"
            },
            {
              "internalType": "address payable",
              "name": "author",
              "type": "address"
            }
          ],
          "internalType": "struct Decentratwitter.Post[]",
          "name": "_posts",
          "type": "tuple[]"
        }
      ],
      "stateMutability": "view",
      "type": "function"
    },
    {
      "inputs": [
        {
          "internalType": "uint256",
          "name": "tokenId",
          "type": "uint256"
        }
      ],
      "name": "getApproved",
      "outputs": [
        {
          "internalType": "address",
          "name": "",
          "type": "address"
        }
      ],
      "stateMutability": "view",
      "type": "function"
    },
    {
      "inputs": [],
      "name": "getMyNfts",
      "outputs": [
        {
          "internalType": "uint256[]",
          "name": "_ids",
          "type": "uint256[]"
        }
      ],
      "stateMutability": "view",
      "type": "function"
    },
    {
      "inputs": [
        {
          "internalType": "address",
          "name": "owner",
          "type": "address"
        },
        {
          "internalType": "address",
          "name": "operator",
          "type": "address"
        }
      ],
      "name": "isApprovedForAll",
      "outputs": [
        {
          "internalType": "bool",
          "name": "",
          "type": "bool"
        }
      ],
      "stateMutability": "view",
      "type": "function"
    },
    {
      "inputs": [
        {
          "internalType": "string",
          "name": "_tokenURI",
          "type": "string"
        }
      ],
      "name": "mint",
      "outputs": [
        {
          "internalType": "uint256",
          "name": "",
          "type": "uint256"
        }
      ],
      "stateMutability": "nonpayable",
      "type": "function"
    },
    {
      "inputs": [],
      "name": "name",
      "outputs": [
        {
          "internalType": "string",
          "name": "",
          "type": "string"
        }
      ],
      "stateMutability": "view",
      "type": "function"
    },
    {
      "inputs": [
        {
          "internalType": "uint256",
          "name": "tokenId",
          "type": "uint256"
        }
      ],
      "name": "ownerOf",
      "outputs": [
        {
          "internalType": "address",
          "name": "",
          "type": "address"
        }
      ],
      "stateMutability": "view",
      "type": "function"
    },
    {
      "inputs": [],
      "name": "postCount",
      "outputs": [
        {
          "internalType": "uint256",
          "name": "",
          "type": "uint256"
        }
      ],
      "stateMutability": "view",
      "type": "function"
    },
    {
      "inputs": [
        {
          "internalType": "uint256",
          "name": "",
          "type": "uint256"
        }
      ],
      "name": "posts",
      "outputs": [
        {
          "internalType": "uint256",
          "name": "id",
          "type": "uint256"
        },
        {
          "internalType": "string",
          "name": "hash",
          "type": "string"
        },
        {
          "internalType": "uint256",
          "name": "tipAmount",
          "type": "uint256"
        },
        {
          "internalType": "address payable",
          "name": "author",
          "type": "address"
        }
      ],
      "stateMutability": "view",
      "type": "function"
    },
    {
      "inputs": [
        {
          "internalType": "address",
          "name": "",
          "type": "address"
        }
      ],
      "name": "profiles",
      "outputs": [
        {
          "internalType": "uint256",
          "name": "",
          "type": "uint256"
        }
      ],
      "stateMutability": "view",
      "type": "function"
    },
    {
      "inputs": [
        {
          "internalType": "address",
          "name": "from",
          "type": "address"
        },
        {
          "internalType": "address",
          "name": "to",
          "type": "address"
        },
        {
          "internalType": "uint256",
          "name": "tokenId",
          "type": "uint256"
        }
      ],
      "name": "safeTransferFrom",
      "outputs": [],
      "stateMutability": "nonpayable",
      "type": "function"
    },
    {
      "inputs": [
        {
          "internalType": "address",
          "name": "from",
          "type": "address"
        },
        {
          "internalType": "address",
          "name": "to",
          "type": "address"
        },
        {
          "internalType": "uint256",
          "name": "tokenId",
          "type": "uint256"
        },
        {
          "internalType": "bytes",
          "name": "_data",
          "type": "bytes"
        }
      ],
      "name": "safeTransferFrom",
      "outputs": [],
      "stateMutability": "nonpayable",
      "type": "function"
    },
    {
      "inputs": [
        {
          "internalType": "address",
          "name": "operator",
          "type": "address"
        },
        {
          "internalType": "bool",
          "name": "approved",
          "type": "bool"
        }
      ],
      "name": "setApprovalForAll",
      "outputs": [],
      "stateMutability": "nonpayable",
      "type": "function"
    },
    {
      "inputs": [
        {
          "internalType": "uint256",
          "name": "_id",
          "type": "uint256"
        }
      ],
      "name": "setProfile",
      "outputs": [],
      "stateMutability": "nonpayable",
      "type": "function"
    },
    {
      "inputs": [
        {
          "internalType": "bytes4",
          "name": "interfaceId",
          "type": "bytes4"
        }
      ],
      "name": "supportsInterface",
      "outputs": [
        {
          "internalType": "bool",
          "name": "",
          "type": "bool"
        }
      ],
      "stateMutability": "view",
      "type": "function"
    },
    {
      "inputs": [],
      "name": "symbol",
      "outputs": [
        {
          "internalType": "string",
          "name": "",
          "type": "string"
        }
      ],
      "stateMutability": "view",
      "type": "function"
    },
    {
      "inputs": [
        {
          "internalType": "uint256",
          "name": "_id",
          "type": "uint256"
        }
      ],
      "name": "tipPostOwner",
      "outputs": [],
      "stateMutability": "payable",
      "type": "function"
    },
    {
      "inputs": [],
      "name": "tokenCount",
      "outputs": [
        {
          "internalType": "uint256",
          "name": "",
          "type": "uint256"
        }
      ],
      "stateMutability": "view",
      "type": "function"
    },
    {
      "inputs": [
        {
          "internalType": "uint256",
          "name": "tokenId",
          "type": "uint256"
        }
      ],
      "name": "tokenURI",
      "outputs": [
        {
          "internalType": "string",
          "name": "",
          "type": "string"
        }
      ],
      "stateMutability": "view",
      "type": "function"
    },
    {
      "inputs": [
        {
          "internalType": "address",
          "name": "from",
          "type": "address"
        },
        {
          "internalType": "address",
          "name": "to",
          "type": "address"
        },
        {
          "internalType": "uint256",
          "name": "tokenId",
          "type": "uint256"
        }
      ],
      "name": "transferFrom",
      "outputs": [],
      "stateMutability": "nonpayable",
      "type": "function"
    },
    {
      "inputs": [
        {
          "internalType": "string",
          "name": "_postHash",
          "type": "string"
        }
      ],
      "name": "uploadPost",
      "outputs": [],
      "stateMutability": "nonpayable",
      "type": "function"
    }
  ],
  "bytecode": "0x60806040523480156200001157600080fd5b506040518060400160405280600f81526020017f446563656e7472617477697474657200000000000000000000000000000000008152506040518060400160405280600481526020017f4441505000000000000000000000000000000000000000000000000000000000815250816000908051906020019062000096929190620000b8565b508060019080519060200190620000af929190620000b8565b505050620001cd565b828054620000c69062000168565b90600052602060002090601f016020900481019282620000ea576000855562000136565b82601f106200010557805160ff191683800117855562000136565b8280016001018555821562000136579182015b828111156200013557825182559160200191906001019062000118565b5b50905062000145919062000149565b5090565b5b80821115620001645760008160009055506001016200014a565b5090565b600060028204905060018216806200018157607f821691505b602082108114156200019857620001976200019e565b5b50919050565b7f4e487b7100000000000000000000000000000000000000000000000000000000600052602260045260246000fd5b613fb080620001dd6000396000f3fe6080604052600436106101405760003560e01c806370a08231116100b6578063bbe156271161006f578063bbe1562714610471578063bdd05adb146104ae578063c87b56dd146104d7578063d6313c0614610514578063d85d3d2714610530578063e985e9c51461056d57610140565b806370a082311461036357806385d3cb37146103a057806395d89b41146103c95780639f181b5e146103f4578063a22cb4651461041f578063b88d4fde1461044857610140565b80630b1e7f83116101085780630b1e7f831461023e57806317906c2e1461027e57806323b872dd146102a957806330561100146102d257806342842e0e146102fd5780636352211e1461032657610140565b806301ffc9a714610145578063047b07bf1461018257806306fdde03146101ad578063081812fc146101d8578063095ea7b314610215575b600080fd5b34801561015157600080fd5b5061016c60048036038101906101679190612a2a565b6105aa565b604051610179919061313b565b60405180910390f35b34801561018e57600080fd5b5061019761068c565b6040516101a49190613119565b60405180910390f35b3480156101b957600080fd5b506101c26107dc565b6040516101cf9190613156565b60405180910390f35b3480156101e457600080fd5b506101ff60048036038101906101fa9190612abd565b61086e565b60405161020c9190613090565b60405180910390f35b34801561022157600080fd5b5061023c600480360381019061023791906129ee565b6108f3565b005b34801561024a57600080fd5b5061026560048036038101906102609190612abd565b610a0b565b60405161027594939291906134af565b60405180910390f35b34801561028a57600080fd5b50610293610ae3565b6040516102a09190613448565b60405180910390f35b3480156102b557600080fd5b506102d060048036038101906102cb91906128e8565b610ae9565b005b3480156102de57600080fd5b506102e7610b49565b6040516102f491906130f7565b60405180910390f35b34801561030957600080fd5b50610324600480360381019061031f91906128e8565b610d97565b005b34801561033257600080fd5b5061034d60048036038101906103489190612abd565b610db7565b60405161035a9190613090565b60405180910390f35b34801561036f57600080fd5b5061038a60048036038101906103859190612883565b610e69565b6040516103979190613448565b60405180910390f35b3480156103ac57600080fd5b506103c760048036038101906103c29190612abd565b610f21565b005b3480156103d557600080fd5b506103de610fde565b6040516103eb9190613156565b60405180910390f35b34801561040057600080fd5b50610409611070565b6040516104169190613448565b60405180910390f35b34801561042b57600080fd5b50610446600480360381019061044191906129b2565b611076565b005b34801561045457600080fd5b5061046f600480360381019061046a9190612937565b61108c565b005b34801561047d57600080fd5b5061049860048036038101906104939190612883565b6110ee565b6040516104a59190613448565b60405180910390f35b3480156104ba57600080fd5b506104d560048036038101906104d09190612a7c565b611106565b005b3480156104e357600080fd5b506104fe60048036038101906104f99190612abd565b6112ba565b60405161050b9190613156565b60405180910390f35b61052e60048036038101906105299190612abd565b61140c565b005b34801561053c57600080fd5b5061055760048036038101906105529190612a7c565b61172e565b6040516105649190613448565b60405180910390f35b34801561057957600080fd5b50610594600480360381019061058f91906128ac565b611775565b6040516105a1919061313b565b60405180910390f35b60007f80ac58cd000000000000000000000000000000000000000000000000000000007bffffffffffffffffffffffffffffffffffffffffffffffffffffffff1916827bffffffffffffffffffffffffffffffffffffffffffffffffffffffff1916148061067557507f5b5e139f000000000000000000000000000000000000000000000000000000007bffffffffffffffffffffffffffffffffffffffffffffffffffffffff1916827bffffffffffffffffffffffffffffffffffffffffffffffffffffffff1916145b80610685575061068482611809565b5b9050919050565b606061069733610e69565b67ffffffffffffffff8111156106d6577f4e487b7100000000000000000000000000000000000000000000000000000000600052604160045260246000fd5b6040519080825280602002602001820160405280156107045781602001602082028036833780820191505090505b509050600080600754905060005b818110156107d6573373ffffffffffffffffffffffffffffffffffffffff166107466001836107419190613648565b610db7565b73ffffffffffffffffffffffffffffffffffffffff1614156107c35760018161076f9190613648565b8484815181106107a8577f4e487b7100000000000000000000000000000000000000000000000000000000600052603260045260246000fd5b60200260200101818152505082806107bf90613840565b9350505b80806107ce90613840565b915050610712565b50505090565b6060600080546107eb906137dd565b80601f0160208091040260200160405190810160405280929190818152602001828054610817906137dd565b80156108645780601f1061083957610100808354040283529160200191610864565b820191906000526020600020905b81548152906001019060200180831161084757829003601f168201915b5050505050905090565b600061087982611873565b6108b8576040517f08c379a00000000000000000000000000000000000000000000000000000000081526004016108af90613348565b60405180910390fd5b6004600083815260200190815260200160002060009054906101000a900473ffffffffffffffffffffffffffffffffffffffff169050919050565b60006108fe82610db7565b90508073ffffffffffffffffffffffffffffffffffffffff168373ffffffffffffffffffffffffffffffffffffffff16141561096f576040517f08c379a0000000000000000000000000000000000000000000000000000000008152600401610966906133a8565b60405180910390fd5b8073ffffffffffffffffffffffffffffffffffffffff1661098e6118df565b73ffffffffffffffffffffffffffffffffffffffff1614806109bd57506109bc816109b76118df565b611775565b5b6109fc576040517f08c379a00000000000000000000000000000000000000000000000000000000081526004016109f390613268565b60405180910390fd5b610a0683836118e7565b505050565b6009602052806000526040600020600091509050806000015490806001018054610a34906137dd565b80601f0160208091040260200160405190810160405280929190818152602001828054610a60906137dd565b8015610aad5780601f10610a8257610100808354040283529160200191610aad565b820191906000526020600020905b815481529060010190602001808311610a9057829003601f168201915b5050505050908060020154908060030160009054906101000a900473ffffffffffffffffffffffffffffffffffffffff16905084565b60085481565b610afa610af46118df565b826119a0565b610b39576040517f08c379a0000000000000000000000000000000000000000000000000000000008152600401610b3090613428565b60405180910390fd5b610b44838383611a7e565b505050565b6060610b8c6040518060400160405280600981526020017f706f7374436f756e740000000000000000000000000000000000000000000000815250600854611ce5565b60085467ffffffffffffffff811115610bce577f4e487b7100000000000000000000000000000000000000000000000000000000600052604160045260246000fd5b604051908082528060200260200182016040528015610c0757816020015b610bf4612669565b815260200190600190039081610bec5790505b50905060005b8151811015610d935760096000600183610c279190613648565b815260200190815260200160002060405180608001604052908160008201548152602001600182018054610c5a906137dd565b80601f0160208091040260200160405190810160405280929190818152602001828054610c86906137dd565b8015610cd35780601f10610ca857610100808354040283529160200191610cd3565b820191906000526020600020905b815481529060010190602001808311610cb657829003601f168201915b50505050508152602001600282015481526020016003820160009054906101000a900473ffffffffffffffffffffffffffffffffffffffff1673ffffffffffffffffffffffffffffffffffffffff1673ffffffffffffffffffffffffffffffffffffffff1681525050828281518110610d75577f4e487b7100000000000000000000000000000000000000000000000000000000600052603260045260246000fd5b60200260200101819052508080610d8b90613840565b915050610c0d565b5090565b610db28383836040518060200160405280600081525061108c565b505050565b6000806002600084815260200190815260200160002060009054906101000a900473ffffffffffffffffffffffffffffffffffffffff169050600073ffffffffffffffffffffffffffffffffffffffff168173ffffffffffffffffffffffffffffffffffffffff161415610e60576040517f08c379a0000000000000000000000000000000000000000000000000000000008152600401610e57906132a8565b60405180910390fd5b80915050919050565b60008073ffffffffffffffffffffffffffffffffffffffff168273ffffffffffffffffffffffffffffffffffffffff161415610eda576040517f08c379a0000000000000000000000000000000000000000000000000000000008152600401610ed190613288565b60405180910390fd5b600360008373ffffffffffffffffffffffffffffffffffffffff1673ffffffffffffffffffffffffffffffffffffffff168152602001908152602001600020549050919050565b3373ffffffffffffffffffffffffffffffffffffffff16610f4182610db7565b73ffffffffffffffffffffffffffffffffffffffff1614610f97576040517f08c379a0000000000000000000000000000000000000000000000000000000008152600401610f8e906133c8565b60405180910390fd5b80600a60003373ffffffffffffffffffffffffffffffffffffffff1673ffffffffffffffffffffffffffffffffffffffff1681526020019081526020016000208190555050565b606060018054610fed906137dd565b80601f0160208091040260200160405190810160405280929190818152602001828054611019906137dd565b80156110665780601f1061103b57610100808354040283529160200191611066565b820191906000526020600020905b81548152906001019060200180831161104957829003601f168201915b5050505050905090565b60075481565b6110886110816118df565b8383611d81565b5050565b61109d6110976118df565b836119a0565b6110dc576040517f08c379a00000000000000000000000000000000000000000000000000000000081526004016110d390613428565b60405180910390fd5b6110e884848484611eee565b50505050565b600a6020528060005260406000206000915090505481565b600061111133610e69565b11611151576040517f08c379a000000000000000000000000000000000000000000000000000000000815260040161114890613408565b60405180910390fd5b6000815111611195576040517f08c379a000000000000000000000000000000000000000000000000000000000815260040161118c90613368565b60405180910390fd5b600860008154809291906111a890613840565b919050555060405180608001604052806008548152602001828152602001600081526020013373ffffffffffffffffffffffffffffffffffffffff168152506009600060085481526020019081526020016000206000820151816000015560208201518160010190805190602001906112229291906126a7565b506040820151816002015560608201518160030160006101000a81548173ffffffffffffffffffffffffffffffffffffffff021916908373ffffffffffffffffffffffffffffffffffffffff1602179055509050507fc66336337a24e513f909b3b25119854dba8385d51307dbc7d31d1b2805e19c7e600854826000336040516112af9493929190613463565b60405180910390a150565b60606112c582611873565b611304576040517f08c379a00000000000000000000000000000000000000000000000000000000081526004016112fb90613328565b60405180910390fd5b6000600660008481526020019081526020016000208054611324906137dd565b80601f0160208091040260200160405190810160405280929190818152602001828054611350906137dd565b801561139d5780601f106113725761010080835404028352916020019161139d565b820191906000526020600020905b81548152906001019060200180831161138057829003601f168201915b5050505050905060006113ae611f4a565b90506000815114156113c4578192505050611407565b6000825111156113f95780826040516020016113e192919061306c565b60405160208183030381529060405292505050611407565b61140284611f61565b925050505b919050565b60008111801561141e57506008548111155b61145d576040517f08c379a0000000000000000000000000000000000000000000000000000000008152600401611454906132e8565b60405180910390fd5b60006009600083815260200190815260200160002060405180608001604052908160008201548152602001600182018054611497906137dd565b80601f01602080910402602001604051908101604052809291908181526020018280546114c3906137dd565b80156115105780601f106114e557610100808354040283529160200191611510565b820191906000526020600020905b8154815290600101906020018083116114f357829003601f168201915b50505050508152602001600282015481526020016003820160009054906101000a900473ffffffffffffffffffffffffffffffffffffffff1673ffffffffffffffffffffffffffffffffffffffff1673ffffffffffffffffffffffffffffffffffffffff168152505090503373ffffffffffffffffffffffffffffffffffffffff16816060015173ffffffffffffffffffffffffffffffffffffffff1614156115ee576040517f08c379a00000000000000000000000000000000000000000000000000000000081526004016115e5906133e8565b60405180910390fd5b806060015173ffffffffffffffffffffffffffffffffffffffff166108fc349081150290604051600060405180830381858888f19350505050158015611638573d6000803e3d6000fd5b50348160400181815161164b9190613648565b91508181525050806009600084815260200190815260200160002060008201518160000155602082015181600101908051906020019061168c9291906126a7565b506040820151816002015560608201518160030160006101000a81548173ffffffffffffffffffffffffffffffffffffffff021916908373ffffffffffffffffffffffffffffffffffffffff1602179055509050507f20988fe475351e75813672abada1dddb7ac67cbbeb81e61e1160b8329d8cdf1c8282602001518360400151846060015160405161172294939291906134af565b60405180910390a15050565b60006007600081548092919061174390613840565b919050555061175433600754612008565b61176060075483612026565b61176b600754610f21565b6007549050919050565b6000600560008473ffffffffffffffffffffffffffffffffffffffff1673ffffffffffffffffffffffffffffffffffffffff16815260200190815260200160002060008373ffffffffffffffffffffffffffffffffffffffff1673ffffffffffffffffffffffffffffffffffffffff16815260200190815260200160002060009054906101000a900460ff16905092915050565b60007f01ffc9a7000000000000000000000000000000000000000000000000000000007bffffffffffffffffffffffffffffffffffffffffffffffffffffffff1916827bffffffffffffffffffffffffffffffffffffffffffffffffffffffff1916149050919050565b60008073ffffffffffffffffffffffffffffffffffffffff166002600084815260200190815260200160002060009054906101000a900473ffffffffffffffffffffffffffffffffffffffff1673ffffffffffffffffffffffffffffffffffffffff1614159050919050565b600033905090565b816004600083815260200190815260200160002060006101000a81548173ffffffffffffffffffffffffffffffffffffffff021916908373ffffffffffffffffffffffffffffffffffffffff160217905550808273ffffffffffffffffffffffffffffffffffffffff1661195a83610db7565b73ffffffffffffffffffffffffffffffffffffffff167f8c5be1e5ebec7d5bd14f71427d1e84f3dd0314c0f7b2291e5b200ac8c7c3b92560405160405180910390a45050565b60006119ab82611873565b6119ea576040517f08c379a00000000000000000000000000000000000000000000000000000000081526004016119e190613248565b60405180910390fd5b60006119f583610db7565b90508073ffffffffffffffffffffffffffffffffffffffff168473ffffffffffffffffffffffffffffffffffffffff161480611a6457508373ffffffffffffffffffffffffffffffffffffffff16611a4c8461086e565b73ffffffffffffffffffffffffffffffffffffffff16145b80611a755750611a748185611775565b5b91505092915050565b8273ffffffffffffffffffffffffffffffffffffffff16611a9e82610db7565b73ffffffffffffffffffffffffffffffffffffffff1614611af4576040517f08c379a0000000000000000000000000000000000000000000000000000000008152600401611aeb906131c8565b60405180910390fd5b600073ffffffffffffffffffffffffffffffffffffffff168273ffffffffffffffffffffffffffffffffffffffff161415611b64576040517f08c379a0000000000000000000000000000000000000000000000000000000008152600401611b5b90613208565b60405180910390fd5b611b6f83838361209a565b611b7a6000826118e7565b6001600360008573ffffffffffffffffffffffffffffffffffffffff1673ffffffffffffffffffffffffffffffffffffffff1681526020019081526020016000206000828254611bca91906136cf565b925050819055506001600360008473ffffffffffffffffffffffffffffffffffffffff1673ffffffffffffffffffffffffffffffffffffffff1681526020019081526020016000206000828254611c219190613648565b92505081905550816002600083815260200190815260200160002060006101000a81548173ffffffffffffffffffffffffffffffffffffffff021916908373ffffffffffffffffffffffffffffffffffffffff160217905550808273ffffffffffffffffffffffffffffffffffffffff168473ffffffffffffffffffffffffffffffffffffffff167fddf252ad1be2c89b69c2b068fc378daa952ba7f163c4a11628f55a4df523b3ef60405160405180910390a4611ce083838361209f565b505050565b611d7d8282604051602401611cfb929190613178565b6040516020818303038152906040527f9710a9d0000000000000000000000000000000000000000000000000000000007bffffffffffffffffffffffffffffffffffffffffffffffffffffffff19166020820180517bffffffffffffffffffffffffffffffffffffffffffffffffffffffff83818316178352505050506120a4565b5050565b8173ffffffffffffffffffffffffffffffffffffffff168373ffffffffffffffffffffffffffffffffffffffff161415611df0576040517f08c379a0000000000000000000000000000000000000000000000000000000008152600401611de790613228565b60405180910390fd5b80600560008573ffffffffffffffffffffffffffffffffffffffff1673ffffffffffffffffffffffffffffffffffffffff16815260200190815260200160002060008473ffffffffffffffffffffffffffffffffffffffff1673ffffffffffffffffffffffffffffffffffffffff16815260200190815260200160002060006101000a81548160ff0219169083151502179055508173ffffffffffffffffffffffffffffffffffffffff168373ffffffffffffffffffffffffffffffffffffffff167f17307eab39ab6107e8899845ad3d59bd9653f200f220920489ca2b5937696c3183604051611ee1919061313b565b60405180910390a3505050565b611ef9848484611a7e565b611f05848484846120cd565b611f44576040517f08c379a0000000000000000000000000000000000000000000000000000000008152600401611f3b906131a8565b60405180910390fd5b50505050565b606060405180602001604052806000815250905090565b6060611f6c82611873565b611fab576040517f08c379a0000000000000000000000000000000000000000000000000000000008152600401611fa290613388565b60405180910390fd5b6000611fb5611f4a565b90506000815111611fd55760405180602001604052806000815250612000565b80611fdf84612264565b604051602001611ff092919061306c565b6040516020818303038152906040525b915050919050565b612022828260405180602001604052806000815250612411565b5050565b61202f82611873565b61206e576040517f08c379a0000000000000000000000000000000000000000000000000000000008152600401612065906132c8565b60405180910390fd5b806006600084815260200190815260200160002090805190602001906120959291906126a7565b505050565b505050565b505050565b60008151905060006a636f6e736f6c652e6c6f679050602083016000808483855afa5050505050565b60006120ee8473ffffffffffffffffffffffffffffffffffffffff1661246c565b15612257578373ffffffffffffffffffffffffffffffffffffffff1663150b7a026121176118df565b8786866040518563ffffffff1660e01b815260040161213994939291906130ab565b602060405180830381600087803b15801561215357600080fd5b505af192505050801561218457506040513d601f19601f820116820180604052508101906121819190612a53565b60015b612207573d80600081146121b4576040519150601f19603f3d011682016040523d82523d6000602084013e6121b9565b606091505b506000815114156121ff576040517f08c379a00000000000000000000000000000000000000000000000000000000081526004016121f6906131a8565b60405180910390fd5b805181602001fd5b63150b7a0260e01b7bffffffffffffffffffffffffffffffffffffffffffffffffffffffff1916817bffffffffffffffffffffffffffffffffffffffffffffffffffffffff19161491505061225c565b600190505b949350505050565b606060008214156122ac576040518060400160405280600181526020017f3000000000000000000000000000000000000000000000000000000000000000815250905061240c565b600082905060005b600082146122de5780806122c790613840565b915050600a826122d7919061369e565b91506122b4565b60008167ffffffffffffffff811115612320577f4e487b7100000000000000000000000000000000000000000000000000000000600052604160045260246000fd5b6040519080825280601f01601f1916602001820160405280156123525781602001600182028036833780820191505090505b5090505b600085146124055760018261236b91906136cf565b9150600a8561237a9190613889565b60306123869190613648565b60f81b8183815181106123c2577f4e487b7100000000000000000000000000000000000000000000000000000000600052603260045260246000fd5b60200101907effffffffffffffffffffffffffffffffffffffffffffffffffffffffffffff1916908160001a905350600a856123fe919061369e565b9450612356565b8093505050505b919050565b61241b838361248f565b61242860008484846120cd565b612467576040517f08c379a000000000000000000000000000000000000000000000000000000000815260040161245e906131a8565b60405180910390fd5b505050565b6000808273ffffffffffffffffffffffffffffffffffffffff163b119050919050565b600073ffffffffffffffffffffffffffffffffffffffff168273ffffffffffffffffffffffffffffffffffffffff1614156124ff576040517f08c379a00000000000000000000000000000000000000000000000000000000081526004016124f690613308565b60405180910390fd5b61250881611873565b15612548576040517f08c379a000000000000000000000000000000000000000000000000000000000815260040161253f906131e8565b60405180910390fd5b6125546000838361209a565b6001600360008473ffffffffffffffffffffffffffffffffffffffff1673ffffffffffffffffffffffffffffffffffffffff16815260200190815260200160002060008282546125a49190613648565b92505081905550816002600083815260200190815260200160002060006101000a81548173ffffffffffffffffffffffffffffffffffffffff021916908373ffffffffffffffffffffffffffffffffffffffff160217905550808273ffffffffffffffffffffffffffffffffffffffff16600073ffffffffffffffffffffffffffffffffffffffff167fddf252ad1be2c89b69c2b068fc378daa952ba7f163c4a11628f55a4df523b3ef60405160405180910390a46126656000838361209f565b5050565b6040518060800160405280600081526020016060815260200160008152602001600073ffffffffffffffffffffffffffffffffffffffff1681525090565b8280546126b3906137dd565b90600052602060002090601f0160209004810192826126d5576000855561271c565b82601f106126ee57805160ff191683800117855561271c565b8280016001018555821561271c579182015b8281111561271b578251825591602001919060010190612700565b5b509050612729919061272d565b5090565b5b8082111561274657600081600090555060010161272e565b5090565b600061275d61275884613520565b6134fb565b90508281526020810184848401111561277557600080fd5b61278084828561379b565b509392505050565b600061279b61279684613551565b6134fb565b9050828152602081018484840111156127b357600080fd5b6127be84828561379b565b509392505050565b6000813590506127d581613f1e565b92915050565b6000813590506127ea81613f35565b92915050565b6000813590506127ff81613f4c565b92915050565b60008151905061281481613f4c565b92915050565b600082601f83011261282b57600080fd5b813561283b84826020860161274a565b91505092915050565b600082601f83011261285557600080fd5b8135612865848260208601612788565b91505092915050565b60008135905061287d81613f63565b92915050565b60006020828403121561289557600080fd5b60006128a3848285016127c6565b91505092915050565b600080604083850312156128bf57600080fd5b60006128cd858286016127c6565b92505060206128de858286016127c6565b9150509250929050565b6000806000606084860312156128fd57600080fd5b600061290b868287016127c6565b935050602061291c868287016127c6565b925050604061292d8682870161286e565b9150509250925092565b6000806000806080858703121561294d57600080fd5b600061295b878288016127c6565b945050602061296c878288016127c6565b935050604061297d8782880161286e565b925050606085013567ffffffffffffffff81111561299a57600080fd5b6129a68782880161281a565b91505092959194509250565b600080604083850312156129c557600080fd5b60006129d3858286016127c6565b92505060206129e4858286016127db565b9150509250929050565b60008060408385031215612a0157600080fd5b6000612a0f858286016127c6565b9250506020612a208582860161286e565b9150509250929050565b600060208284031215612a3c57600080fd5b6000612a4a848285016127f0565b91505092915050565b600060208284031215612a6557600080fd5b6000612a7384828501612805565b91505092915050565b600060208284031215612a8e57600080fd5b600082013567ffffffffffffffff811115612aa857600080fd5b612ab484828501612844565b91505092915050565b600060208284031215612acf57600080fd5b6000612add8482850161286e565b91505092915050565b6000612af28383612feb565b905092915050565b6000612b06838361304e565b60208301905092915050565b612b1b81613715565b82525050565b612b2a81613715565b82525050565b612b3981613703565b82525050565b6000612b4a826135a2565b612b5481856135e8565b935083602082028501612b6685613582565b8060005b85811015612ba25784840389528151612b838582612ae6565b9450612b8e836135ce565b925060208a01995050600181019050612b6a565b50829750879550505050505092915050565b6000612bbf826135ad565b612bc981856135f9565b9350612bd483613592565b8060005b83811015612c05578151612bec8882612afa565b9750612bf7836135db565b925050600181019050612bd8565b5085935050505092915050565b612c1b81613727565b82525050565b6000612c2c826135b8565b612c36818561360a565b9350612c468185602086016137aa565b612c4f81613976565b840191505092915050565b612c6381613789565b82525050565b6000612c74826135c3565b612c7e818561361b565b9350612c8e8185602086016137aa565b612c9781613976565b840191505092915050565b6000612cad826135c3565b612cb7818561362c565b9350612cc78185602086016137aa565b612cd081613976565b840191505092915050565b6000612ce6826135c3565b612cf0818561363d565b9350612d008185602086016137aa565b80840191505092915050565b6000612d1960328361362c565b9150612d2482613987565b604082019050919050565b6000612d3c60258361362c565b9150612d47826139d6565b604082019050919050565b6000612d5f601c8361362c565b9150612d6a82613a25565b602082019050919050565b6000612d8260248361362c565b9150612d8d82613a4e565b604082019050919050565b6000612da560198361362c565b9150612db082613a9d565b602082019050919050565b6000612dc8602c8361362c565b9150612dd382613ac6565b604082019050919050565b6000612deb60388361362c565b9150612df682613b15565b604082019050919050565b6000612e0e602a8361362c565b9150612e1982613b64565b604082019050919050565b6000612e3160298361362c565b9150612e3c82613bb3565b604082019050919050565b6000612e54602e8361362c565b9150612e5f82613c02565b604082019050919050565b6000612e77600f8361362c565b9150612e8282613c51565b602082019050919050565b6000612e9a60208361362c565b9150612ea582613c7a565b602082019050919050565b6000612ebd60318361362c565b9150612ec882613ca3565b604082019050919050565b6000612ee0602c8361362c565b9150612eeb82613cf2565b604082019050919050565b6000612f0360198361362c565b9150612f0e82613d41565b602082019050919050565b6000612f26602f8361362c565b9150612f3182613d6a565b604082019050919050565b6000612f4960218361362c565b9150612f5482613db9565b604082019050919050565b6000612f6c60338361362c565b9150612f7782613e08565b604082019050919050565b6000612f8f60188361362c565b9150612f9a82613e57565b602082019050919050565b6000612fb260268361362c565b9150612fbd82613e80565b604082019050919050565b6000612fd560318361362c565b9150612fe082613ecf565b604082019050919050565b6000608083016000830151613003600086018261304e565b506020830151848203602086015261301b8282612c69565b9150506040830151613030604086018261304e565b5060608301516130436060860182612b12565b508091505092915050565b6130578161377f565b82525050565b6130668161377f565b82525050565b60006130788285612cdb565b91506130848284612cdb565b91508190509392505050565b60006020820190506130a56000830184612b30565b92915050565b60006080820190506130c06000830187612b30565b6130cd6020830186612b30565b6130da604083018561305d565b81810360608301526130ec8184612c21565b905095945050505050565b600060208201905081810360008301526131118184612b3f565b905092915050565b600060208201905081810360008301526131338184612bb4565b905092915050565b60006020820190506131506000830184612c12565b92915050565b600060208201905081810360008301526131708184612ca2565b905092915050565b600060408201905081810360008301526131928185612ca2565b90506131a1602083018461305d565b9392505050565b600060208201905081810360008301526131c181612d0c565b9050919050565b600060208201905081810360008301526131e181612d2f565b9050919050565b6000602082019050818103600083015261320181612d52565b9050919050565b6000602082019050818103600083015261322181612d75565b9050919050565b6000602082019050818103600083015261324181612d98565b9050919050565b6000602082019050818103600083015261326181612dbb565b9050919050565b6000602082019050818103600083015261328181612dde565b9050919050565b600060208201905081810360008301526132a181612e01565b9050919050565b600060208201905081810360008301526132c181612e24565b9050919050565b600060208201905081810360008301526132e181612e47565b9050919050565b6000602082019050818103600083015261330181612e6a565b9050919050565b6000602082019050818103600083015261332181612e8d565b9050919050565b6000602082019050818103600083015261334181612eb0565b9050919050565b6000602082019050818103600083015261336181612ed3565b9050919050565b6000602082019050818103600083015261338181612ef6565b9050919050565b600060208201905081810360008301526133a181612f19565b9050919050565b600060208201905081810360008301526133c181612f3c565b9050919050565b600060208201905081810360008301526133e181612f5f565b9050919050565b6000602082019050818103600083015261340181612f82565b9050919050565b6000602082019050818103600083015261342181612fa5565b9050919050565b6000602082019050818103600083015261344181612fc8565b9050919050565b600060208201905061345d600083018461305d565b92915050565b6000608082019050613478600083018761305d565b818103602083015261348a8186612ca2565b90506134996040830185612c5a565b6134a66060830184612b21565b95945050505050565b60006080820190506134c4600083018761305d565b81810360208301526134d68186612ca2565b90506134e5604083018561305d565b6134f26060830184612b21565b95945050505050565b6000613505613516565b9050613511828261380f565b919050565b6000604051905090565b600067ffffffffffffffff82111561353b5761353a613947565b5b61354482613976565b9050602081019050919050565b600067ffffffffffffffff82111561356c5761356b613947565b5b61357582613976565b9050602081019050919050565b6000819050602082019050919050565b6000819050602082019050919050565b600081519050919050565b600081519050919050565b600081519050919050565b600081519050919050565b6000602082019050919050565b6000602082019050919050565b600082825260208201905092915050565b600082825260208201905092915050565b600082825260208201905092915050565b600082825260208201905092915050565b600082825260208201905092915050565b600081905092915050565b60006136538261377f565b915061365e8361377f565b9250827fffffffffffffffffffffffffffffffffffffffffffffffffffffffffffffffff03821115613693576136926138ba565b5b828201905092915050565b60006136a98261377f565b91506136b48361377f565b9250826136c4576136c36138e9565b5b828204905092915050565b60006136da8261377f565b91506136e58361377f565b9250828210156136f8576136f76138ba565b5b828203905092915050565b600061370e8261375f565b9050919050565b60006137208261375f565b9050919050565b60008115159050919050565b60007fffffffff0000000000000000000000000000000000000000000000000000000082169050919050565b600073ffffffffffffffffffffffffffffffffffffffff82169050919050565b6000819050919050565b60006137948261377f565b9050919050565b82818337600083830152505050565b60005b838110156137c85780820151818401526020810190506137ad565b838111156137d7576000848401525b50505050565b600060028204905060018216806137f557607f821691505b6020821081141561380957613808613918565b5b50919050565b61381882613976565b810181811067ffffffffffffffff8211171561383757613836613947565b5b80604052505050565b600061384b8261377f565b91507fffffffffffffffffffffffffffffffffffffffffffffffffffffffffffffffff82141561387e5761387d6138ba565b5b600182019050919050565b60006138948261377f565b915061389f8361377f565b9250826138af576138ae6138e9565b5b828206905092915050565b7f4e487b7100000000000000000000000000000000000000000000000000000000600052601160045260246000fd5b7f4e487b7100000000000000000000000000000000000000000000000000000000600052601260045260246000fd5b7f4e487b7100000000000000000000000000000000000000000000000000000000600052602260045260246000fd5b7f4e487b7100000000000000000000000000000000000000000000000000000000600052604160045260246000fd5b6000601f19601f8301169050919050565b7f4552433732313a207472616e7366657220746f206e6f6e20455243373231526560008201527f63656976657220696d706c656d656e7465720000000000000000000000000000602082015250565b7f4552433732313a207472616e736665722066726f6d20696e636f72726563742060008201527f6f776e6572000000000000000000000000000000000000000000000000000000602082015250565b7f4552433732313a20746f6b656e20616c7265616479206d696e74656400000000600082015250565b7f4552433732313a207472616e7366657220746f20746865207a65726f2061646460008201527f7265737300000000000000000000000000000000000000000000000000000000602082015250565b7f4552433732313a20617070726f766520746f2063616c6c657200000000000000600082015250565b7f4552433732313a206f70657261746f7220717565727920666f72206e6f6e657860008201527f697374656e7420746f6b656e0000000000000000000000000000000000000000602082015250565b7f4552433732313a20617070726f76652063616c6c6572206973206e6f74206f7760008201527f6e6572206e6f7220617070726f76656420666f7220616c6c0000000000000000602082015250565b7f4552433732313a2062616c616e636520717565727920666f7220746865207a6560008201527f726f206164647265737300000000000000000000000000000000000000000000602082015250565b7f4552433732313a206f776e657220717565727920666f72206e6f6e657869737460008201527f656e7420746f6b656e0000000000000000000000000000000000000000000000602082015250565b7f45524337323155524953746f726167653a2055524920736574206f66206e6f6e60008201527f6578697374656e7420746f6b656e000000000000000000000000000000000000602082015250565b7f496e76616c696420706f73742069640000000000000000000000000000000000600082015250565b7f4552433732313a206d696e7420746f20746865207a65726f2061646472657373600082015250565b7f45524337323155524953746f726167653a2055524920717565727920666f722060008201527f6e6f6e6578697374656e7420746f6b656e000000000000000000000000000000602082015250565b7f4552433732313a20617070726f76656420717565727920666f72206e6f6e657860008201527f697374656e7420746f6b656e0000000000000000000000000000000000000000602082015250565b7f43616e6e6f74207061737320616e20656d707479206861736800000000000000600082015250565b7f4552433732314d657461646174613a2055524920717565727920666f72206e6f60008201527f6e6578697374656e7420746f6b656e0000000000000000000000000000000000602082015250565b7f4552433732313a20617070726f76616c20746f2063757272656e74206f776e6560008201527f7200000000000000000000000000000000000000000000000000000000000000602082015250565b7f4d757374206f776e20746865206e667420796f752077616e7420746f2073656c60008201527f65637420617320796f75722070726f66696c6500000000000000000000000000602082015250565b7f43616e6e6f742074697020796f7572206f776e20706f73740000000000000000600082015250565b7f4d757374206f776e206120646563656e74726174776974746572206e6674207460008201527f6f20706f73740000000000000000000000000000000000000000000000000000602082015250565b7f4552433732313a207472616e736665722063616c6c6572206973206e6f74206f60008201527f776e6572206e6f7220617070726f766564000000000000000000000000000000602082015250565b613f2781613703565b8114613f3257600080fd5b50565b613f3e81613727565b8114613f4957600080fd5b50565b613f5581613733565b8114613f6057600080fd5b50565b613f6c8161377f565b8114613f7757600080fd5b5056fea26469706673582212204034125cdc24dae108743b8e1f3b04869a3318546a023e52613fbbed98d814c064736f6c63430008040033",
  "linkReferences": {},
  "deployedLinkReferences": {}
}